:100000005DC0000082C0000080C000007EC0000013
:100010007CC000007AC0000078C0000076C00000FC
:1000200074C0000072C0000070C000006AC500000B
:100030006CC000006AC0000068C0000066C000001C
:10004000CFC4000062C00000D1C2000001C30000A4
:100050005CC000005AC0000058C0000056C000003C
:1000600054C0000052C0000000000008000201005F
:100070000003040700000000000000000102040863
:100080001020408001020408102001020408102002
:10009000040404040404040402020202020203032E
:1000A0000303030300000000250028002B000000CC
:1000B0000000240027002A008600560311241FBEDA
:1000C000CFEFD8E0DEBFCDBF11E0A0E0B1E0E8E8BF
:1000D000F1E102C005900D92A033B107D9F722E0FB
:1000E000A0E3B1E001C01D92A634B207E1F710E031
:1000F000CCEBD0E004C02297FE010E94AF08C83BC1
:10010000D107C9F763D40C94C2087ACF87E791E08E
:10011000B2D584E791E0AFD581E791E0ACD58EE62A
:1001200091E0A9D58BE691E0A6D588E691E0A3D52C
:1001300085E691E0A0D582E691E09DD58FE591E03E
:100140009AD58CE591E097D589E591E094D586E53F
:1001500091E091C526E040E05BE460E070E08AE772
:1001600091E0E4D18AE791E05CD162E070E087E75A
:1001700091E019D663E070E084E791E014D664E082
:1001800070E081E791E00FD665E070E08EE691E0E7
:100190000AD666E070E08BE691E005D667E070E095
:1001A00088E691E000D668E070E085E691E0FBD556
:1001B00069E070E082E691E0F6D56AE070E08FE5F4
:1001C00091E0F1D56BE070E08CE591E0ECD56CE06E
:1001D00070E089E591E0E7D56DE070E086E591E0BB
:1001E000E2C58AE791E0C2D0892BF1F04EE050E001
:1001F00060E371E08AE791E0C6D3809130018E3BE5
:1002000081F780913D01803C61F7E1E3F1E0AEE3ED
:10021000B1E0819190E08A5591098D939D9381E0A1
:10022000ED33F807B1F7DDCF0895CF93DF938AE779
:1002300091E09CD0892B09F496C0D3DFCEE3D1E0C6
:10024000699179914AE050E08AE791E069D36AE0E8
:1002500071E08AE791E0ABD281E0C635D80781F73B
:1002600060E271E08AE791E0ADD260913E01709169
:100270003F01635A7F4F87E791E0CDD56EE570E08F
:100280008091400190914101681B790B84E791E0D6
:10029000C2D56CE370E08091420190914301681BEC
:1002A000790B81E791E0B7D56091440170914501E8
:1002B000695A7F4F8EE691E0AED560E570E080919F
:1002C000460190914701681B790B8BE691E0A3D51D
:1002D0006DE370E08091480190914901681B790BB2
:1002E00088E691E098D560914A0170914B016E5A71
:1002F0007F4F85E691E08FD566E570E080914C01F7
:1003000090914D01681B790B82E691E084D561E400
:1003100070E080914E0190914F01681B790B8FE541
:1003200091E079D56091500170915101655A7F4FEC
:100330008CE591E070D56FE570E08091520190916D
:100340005301681B790B89E591E065D560E470E0A5
:100350008091540190915501681B790B86E591E0DD
:10036000DF91CF9158C5DF91CF910895FC01818D28
:10037000228D90E0805C9F4F821B91098F7399279B
:100380000895FC01918D828D981731F0828DE80FD0
:10039000F11D858D90E008958FEF9FEF0895FC018A
:1003A000918D828D981761F0828DDF01A80FB11DAC
:1003B0005D968C91928D9F5F9F73928F90E00895D0
:1003C0008FEF9FEF08958DE493E0892B41F080E05B
:1003D00090E0892B21F061D181110C9400000895E7
:1003E000FC01848DDF01A80FB11DA35ABF4F2C91D2
:1003F000848D90E001968F739927848FA689B789A1
:100400002C93A089B1898C9180648C93938D848D79
:10041000981306C00288F389E02D80818F7D808348
:100420000895CF93DF93EC01888D8823C1F0EA898A
:10043000FB89808185FD05C0A889B9898C9186FDDD
:100440000EC00FB607FCF5CF808185FFF2CFA889DB
:10045000B9898C9185FFEDCFCE01C2DFE8CFDF9166
:10046000CF910895CF92DF92FF920F931F93CF9376
:10047000DF931F92CDB7DEB76C0181E0D6015896AD
:100480008C9358975B969C915B975C968C915C974C
:10049000981307C05096ED91FC915197808185FD8E
:1004A0002DC0F601038D10E00F5F1F4F0F73112752
:1004B000F02EF601848DF81210C00FB607FCF9CFAC
:1004C000D6015096ED91FC915197808185FFF1CF37
:1004D000C601698385DF6981ECCF838DE80FF11D4B
:1004E000E35AFF4F6083D6015B960C935B9752965D
:1004F000ED91FC915397808180620CC0D601569695
:10050000ED91FC91579760835096ED91FC91519736
:1005100080818064808381E090E00F90DF91CF91B3
:100520001F910F91FF90DF90CF900895BF92CF92CF
:10053000DF92EF92FF92CF93DF93EC016A017B0190
:10054000B22EE889F98982E08083411581EE58074F
:100550006105710599F060E079E08DE390E0A70115
:100560009601B3D521503109410951095695479556
:1005700037952795211580E1380790F0E889F989AA
:10058000108260E874E88EE190E0A70196019DD5A5
:1005900021503109410951095695479537952795BD
:1005A000EC85FD853083EE85FF852083188EEC89F0
:1005B000FD89B082EA89FB89808180618083EA8934
:1005C000FB89808188608083EA89FB8980818068DB
:1005D0008083EA89FB8980818F7D8083DF91CF9141
:1005E000FF90EF90DF90CF90BF9008951F920F92F1
:1005F0000FB60F9211242F938F939F93EF93FF9336
:10060000E0918A01F0918B018081E0919001F0915D
:10061000910182FD12C09081809193018F5F8F7351
:1006200020919401821751F0E0919301F0E0E65897
:10063000FE4F958F8093930101C08081FF91EF91D0
:100640009F918F912F910F900FBE0F901F90189533
:100650001F920F920FB60F9211242F933F934F9337
:100660005F936F937F938F939F93AF93BF93EF931A
:10067000FF938AE791E0B4DEFF91EF91BF91AF91D4
:100680009F918F917F916F915F914F913F912F91AA
:100690000F900FBE0F901F9018958AE791E066DECD
:1006A00021E0892B09F420E0822F089510927D012A
:1006B00010927C0188EE93E0A0E0B0E080937E0190
:1006C00090937F01A0938001B093810182E191E03A
:1006D00090937B0180937A0185EC90E09093870161
:1006E0008093860184EC90E0909389018093880147
:1006F00080EC90E090938B0180938A0181EC90E0F4
:1007000090938D0180938C0182EC90E090938F0107
:1007100080938E0186EC90E09093910180939001FC
:1007200010929301109294011092950110929601EB
:100730000895CF92DF92EF92FF920F931F93CF9382
:10074000DF937C016A01EB0100E010E00C151D0550
:1007500071F06991D701ED91FC910190F081E02D4C
:10076000C7010995892B19F00F5F1F4FEFCFC80103
:10077000DF91CF911F910F91FF90EF90DF90CF907D
:1007800008956115710581F0DB010D900020E9F7F6
:10079000AD0141505109461B570BDC01ED91FC9115
:1007A0000280F381E02D099480E090E00895E9CF84
:1007B000DC01ED91FC910190F081E02D09946EE156
:1007C00071E0DFCF0F931F93CF93DF93EC01D9DF5D
:1007D0008C01CE01F4DF800F911FDF91CF911F912B
:1007E0000F9108958F929F92AF92BF92CF92DF9216
:1007F000EF92FF920F931F93CF93DF93CDB7DEB7A6
:10080000A1970FB6F894DEBF0FBECDBF7C01C42EFA
:10081000E52FCB01D22E19A221E02D1510F02AE0F0
:10082000D22E8E010F5D1F4F8D2C912CA12CB12C3F
:100830006C2D7E2FA501940148D48C2DD29E801959
:100840001124015011098A3014F4805D01C0895CC3
:10085000F8018083211531054105510521F0C22E93
:10086000E32FCA01E5CFB801C7018BDFA1960FB610
:10087000F894DEBF0FBECDBFDF91CF911F910F91D6
:10088000FF90EF90DF90CF90BF90AF909F908F90B0
:100890000895CF92DF92EF92FF920F931F93CF9321
:1008A000DF93EC016A017B012115310579F4E881C0
:1008B000F9810190F081E02D642FDF91CF911F919C
:1008C0000F91FF90EF90DF90CF9009942A3031057F
:1008D000D9F477FF18C06DE26BDF8C0144275527F0
:1008E000BA014C195D096E097F092AE0CE017ADF51
:1008F000800F911FDF91CF911F910F91FF90EF908B
:10090000DF90CF9008952AE0B701A601CE01DF91D4
:10091000CF911F910F91FF90EF90DF90CF9062CF1A
:100920009A01AB01662757FD6095762FB2CF0F93E2
:100930001F93CF93DF93EC019DD0688779878A87D7
:100940009B87E881F9810680F781E02DCE0109952A
:1009500097FF14C08FD0088519852A853B85601BB9
:10096000710B820B930B0C811D812E813F816017CF
:1009700071078207930728F38FEF9FEFDF91CF91E5
:100980001F910F910895CF92DF92EF92FF920F93F4
:100990001F93CF93DF937C016A01EB0100E010E02D
:1009A0000C151D0541F0C701C2DF97FD04C08993F6
:1009B0000F5F1F4FF5CFC801DF91CF911F910F91AE
:1009C000FF90EF90DF90CF90089508955FD0FDDF06
:1009D000C1DBC3EED1E029DC2097E9F3F4DCFBCFE7
:1009E0001F920F920FB60F9211242F933F938F9364
:1009F0009F93AF93BF938091180290911902A09199
:100A00001A02B0911B023091170223E0230F2D37F9
:100A100020F40196A11DB11D05C026E8230F029602
:100A2000A11DB11D20931702809318029093190203
:100A3000A0931A02B0931B0280911C0290911D0298
:100A4000A0911E02B0911F020196A11DB11D8093BD
:100A50001C0290931D02A0931E02B0931F02BF912F
:100A6000AF919F918F913F912F910F900FBE0F905B
:100A70001F9018952FB7F894609118027091190281
:100A800080911A0290911B022FBF0895789484B52B
:100A9000826084BD84B5816084BD85B5826085BD7A
:100AA00085B5816085BDEEE6F0E080818160808360
:100AB000E1E8F0E010828081826080838081816043
:100AC0008083E0E8F0E0808181608083E1EBF0E00A
:100AD000808184608083E0EBF0E0808181608083AE
:100AE000EAE7F0E080818460808380818260808397
:100AF0008081816080838081806880831092C100C2
:100B000008951F920F920FB60F9211242F933F93C7
:100B10004F935F936F937F938F939F93AF93BF9305
:100B2000EF93FF938091210287FF05C0109285000B
:100B3000109284001AC020912102332727FD30959E
:100B40008091200290E0281739077CF480912102DF
:100B5000992787FD9095FC01EE0FFF1FE80FF91F05
:100B6000EE5DFD4F808186FD15C0809121028F5F73
:100B70008093210220912102332727FD3095809117
:100B8000200290E028173907B4F4809121028C30BC
:100B900054F111C080912102992787FD9095FC01A5
:100BA000EE0FFF1FE80FF91FEE5DFD4F808160E043
:100BB0008F733BD2DACF80918400909185000496A8
:100BC00080349C4918F480E49CE905C0809184003D
:100BD00090918500049690938900809388008FEF10
:100BE0008093210237C0209184003091850080914C
:100BF0002102992787FD9095FC01EE0FFF1FE80F5A
:100C0000F91FEE5DFD4F81819281820F931F9093BA
:100C100089008093880080912102992787FD909513
:100C2000FC01EE0FFF1FE80FF91FEE5DFD4F808105
:100C300086FF10C080912102992787FD9095FC01C5
:100C4000EE0FFF1FE80FF91FEE5DFD4F808161E0A1
:100C50008F73EBD1FF91EF91BF91AF919F918F91E6
:100C60007F916F915F914F913F912F910F900FBEA8
:100C70000F901F901895209120022C30A0F431E0A5
:100C8000320F30932002FC012083822F90E0FC0180
:100C9000EE0FFF1FE80FF91FEE5DFD4F88EB9BE0A5
:100CA0009283818308952FEFFC0120830895DF92C2
:100CB000EF92FF920F931F93CF93DF93EC01D62E09
:100CC0007A01890188818C3008F064C061E08D2D43
:100CD00073D18881A82FB0E0FD01EE0FFF1FEA0F4E
:100CE000FB1FEE5DFD4F2D2D2F739081907C922B7D
:100CF000908360E272E06E197F0977FF02C06D5F3A
:100D00007F4F7595679575956795698340E659E0BE
:100D1000401B510B57FF02C04D5F5F4F55954795E4
:100D2000559547954A836CE0C4D19CE0899FB001FA
:100D3000112420E030E0A901460F571FFA01EE0F01
:100D4000FF1FE40FF51FEE5DFD4F908196FD16C06D
:100D50002F5F3F4F2C30310571F781110FC010927A
:100D6000800082E0809381001092850010928400C0
:100D7000B19A80916F00826080936F00888190E0CB
:100D8000FC01EE0FFF1FE80FF91FEE5DFD4F8081A4
:100D9000806480838881DF91CF911F910F91FF90B4
:100DA000EF90DF90089520E639E040E252E07FCFF7
:100DB000FC0180818C3070F5918128E830E0291B9E
:100DC000310997FD3395220F331F220F331F62170E
:100DD00073077CF0928128E532E0291B310997FDE9
:100DE0003395220F331F220F331F621773070CF442
:100DF0009B0122503109220F331F4FB7F89490E026
:100E0000FC01EE0FFF1FE80FF91FEE5DFD4F32836F
:100E100021834FBF08954F925F926F927F92AF925E
:100E2000BF92CF92DF92EF92FF920F931F93CF93D7
:100E3000DF93EC01603282E078070CF03FC077FD71
:100E400006C0653B71052CF064EB70E002C060E009
:100E500070E0898128E830E0281B310987FD33954F
:100E6000220F331F220F331F5901CC24B7FCC0942B
:100E7000DC2C882777FD8095982F2A8148E552E061
:100E8000421B510927FD5395440F551F440F551F11
:100E90002A01662457FC6094762C7F926F925F92B1
:100EA0004F9214EBE12EF12C00E010E020E030E056
:100EB000A90114D00F900F900F900F90CE01DF91E9
:100EC000CF911F910F91FF90EF90DF90CF90BF9047
:100ED000AF907F906F905F904F906ACF4F925F92EC
:100EE0006F927F92AF92BF92CF92DF92EF92FF927A
:100EF0000F931F93CF93DF93CDB7DEB729013A014C
:100F0000621B730B840B950B29893A894B895C8989
:100F10002A193B094C095D09298B3A8B4B8B5C8B59
:100F20009B01AC0169897A898B899C89B3D0E418CB
:100F3000F50806091709A8019701E9D02A0D3B1DFC
:100F40004C1D5D1DCA01B901DF91CF911F910F9119
:100F5000FF90EF90DF90CF90BF90AF907F906F9019
:100F60005F904F900895833081F028F4813099F09C
:100F70008230A1F008958730A9F08830B9F084302C
:100F8000D1F4809180008F7D03C0809180008F77A5
:100F900080938000089584B58F7702C084B58F7DDB
:100FA00084BD08958091B0008F7703C08091B00018
:100FB0008F7D8093B0000895CF93DF9390E0FC0184
:100FC000E458FF4F2491FC01E057FF4F84918823A0
:100FD00049F190E0880F991FFC01E255FF4FA59160
:100FE000B4918C559F4FFC01C591D4919FB761116D
:100FF00008C0F8948C91209582238C938881822359
:101000000AC0623051F4F8948C91322F30958323CA
:101010008C938881822B888304C0F8948C91822BD6
:101020008C939FBFDF91CF9108950F931F93CF9320
:10103000DF931F92CDB7DEB7282F30E0F901E859D2
:10104000FF4F8491F901E458FF4F1491F901E057E3
:10105000FF4F04910023C1F0882319F0698383DFD7
:101060006981E02FF0E0EE0FFF1FEC55FF4FA591D7
:10107000B4919FB7F8948C91611103C010958123AE
:1010800001C0812B8C939FBF0F90DF91CF911F9157
:101090000F910895DB018F939F9355D0BF91AF912E
:1010A000A29F800D911DA39F900DB29F900D1124C2
:1010B0000895991B79E004C0991F961708F0961BB4
:1010C000881F7A95C9F780950895A1E21A2EAA1B68
:1010D000BB1BFD010DC0AA1FBB1FEE1FFF1FA217E8
:1010E000B307E407F50720F0A21BB30BE40BF50BE5
:1010F000661F771F881F991F1A9469F7609570956E
:10110000809590959B01AC01BD01CF010895052EFE
:1011100097FB16F400940FD057FD05D0D6DF07FCDF
:1011200002D046F408C050954095309521953F4F28
:101130004F4F5F4F089590958095709561957F4FC3
:101140008F4F9F4F08950FD0A59F900DB49F900D86
:10115000A49F800D911D11240895EE0FFF1F05908F
:10116000F491E02D0994A29FB001B39FC001A39F09
:10117000700D811D1124911DB29F700D811D1124D0
:08118000911D0895F894FFCFC2
:1011880000004602800001000000202C2000000022
:10119800000032029903B601CF01C10111020D0A04
:1011A800006E616E00696E66006F7666002E000044
:00000001FF
